:020000040800F2
:1000000000350120E90200080D060008C3050008BC
:100010000906000829050008DB08000800000000A8
:10002000000000000000000000000000290200089D
:100030002D0500080000000085020008590700088F
:100040000303000803030008030300080303000878
:100050000303000803030008030300080303000868
:100060000303000803030008030300080303000858
:100070000303000803030008030300080303000848
:100080000303000803030008030300080303000838
:100090000303000803030008030300080303000828
:1000A0000303000803030008030300080303000818
:1000B0000303000803030008030300080303000808
:1000C00003030008030300080303000803030008F8
:1000D00003030008F50700080303000803030008F2
:1000E00003030008030300080303000803030008D8
:1000F00003030008030300080303000803030008C8
:1001000003030008030300080303000803030008B7
:1001100003030008030300080303000803030008A7
:100120000303000803030008030300080303000897
:100130000303000803030008030300080303000887
:100140000303000803030008030300080303000877
:100150000303000803030008030300080303000867
:100160000303000803030008030300080303000857
:100170000303000803030008030300080303000847
:10018000030300080303000800F002F800F03CF845
:100190000AA090E8000C82448344AAF10107DA45E2
:1001A00001D100F031F8AFF2090EBAE80F0013F0F8
:1001B000010F18BFFB1A43F0010318479C220000EF
:1001C000BC220000103A24BF78C878C1FAD8520780
:1001D00024BF30C830C144BF04680C6070470000C1
:1001E0000023002400250026103A28BF78C1FBD840
:1001F000520728BF30C148BF0B6070471FB502F0DF
:1002000025F91FBD10B510BD00F05BF91146FFF7D1
:10021000F5FF00F099FB00F079F903B4FFF7F2FF66
:1002200003BC00F05CFB00002C4B19680868B0E8C8
:10023000F04F80F30988BFF36F8F4FF0000080F319
:10024000118870470000000008480068006880F3CB
:1002500008884FF0000080F3148862B661B6BFF3DF
:100260004F8FBFF36F8F00DF00BF00BF08ED00E0CE
:10027000DFF80C00016841F470010160704700BFB5
:1002800088ED00E0EFF30980BFF36F8F134B1A681E
:100290001EF0100F08BF20ED108A20E9F04F10600B
:1002A00009B44FF0500080F31188BFF34F8FBFF3B4
:1002B0006F8F01F097FB4FF0000080F3118809BCAD
:1002C00019680868B0E8F04F1EF0100F08BFB0ECD6
:1002D000108A80F30988BFF36F8F704728000020D1
:1002E000EFF3058070470000094880470948004740
:1002F000FEE7FEE7FEE7FEE7FEE7FEE7FEE7FEE7D6
:10030000FEE7FEE704480549054A064B7047000032
:100310008D07000889010008002F01200035012009
:1003200000310120003101207047032A40F2308063
:1003300010F0030C00F0158011F8013BBCF1020F26
:10034000624498BF11F801CB00F8013B38BF11F8A7
:10035000013BA2F1040298BF00F801CB38BF00F8BE
:10036000013B11F0030300F05880083AC0F0088008
:1003700051F8043B083A51F804CBA0E80810F5E71F
:10038000121D5CBF51F8043B40F8043BAFF3008002
:10039000D20724BF11F8013B11F801CB48BF11F877
:1003A000012B24BF00F8013B00F801CB48BF00F847
:1003B000012B704702F0FF0343EA032242EA0242A4
:1003C00000F05FB84FF0000200B513469446964621
:1003D000203922BFA0E80C50A0E80C50B1F1200158
:1003E000BFF4F7AF090728BFA0E80C5048BF0CC006
:1003F0005DF804EB890028BF40F8042B08BF704764
:1004000048BF20F8022B11F0804F18BF00F8012BD5
:100410007047704770477047704710B5203AC0F07A
:100420000B80B1E81850203AA0E81850B1E81850F5
:10043000A0E81850BFF4F5AF5FEA027C24BFB1E832
:100440001850A0E8185044BF18C918C0BDE81040A3
:100450005FEA827C24BF51F8043B40F8043B08BFAC
:100460007047D20728BF31F8023B48BF11F8012B73
:1004700028BF20F8023B48BF00F8012B70474FF01F
:1004800000020429C0F0128010F0030C3FF49CAF6E
:10049000CCF1040CBCF1020F18BF00F8012BA8BF6F
:1004A00020F8022BA1EB0C01FFF78EBF5FEAC17CA5
:1004B00024BF00F8012B00F8012B48BF00F8012BE6
:1004C0007047754600F02CF8AE4605006946534665
:1004D00020F00700854618B020B5FFF713FFBDE8F0
:1004E00020404FF000064FF000074FF000084FF09B
:1004F000000B21F00701AC46ACE8C009ACE8C0092C
:10050000ACE8C009ACE8C0098D46704710B5044698
:10051000AFF300802046BDE81040FFF77EBE00002C
:1005200000487047A02E012000BFFEE77047F0B5DD
:100530000A4600210023002400BF3DE0012505FA02
:1005400001F3156805EA03049C4234D105684F00A5
:100550000326BE40B543056015794E00B5400668D8
:10056000354305601579012D02D01579022D16D17C
:1005700085684F000326BE40B543856055794E001F
:10058000B540866835438560456801268E40B54391
:100590004560456896798E40B6B235434560C5687A
:1005A0004F000326BE40B543C560D5794E00B54027
:1005B000C6683543C560491C1029BFD3F0BD01830F
:1005C000704700BFFEE700001CB50121202000F0AD
:1005D00029F801208DF804004FF4C060009003203A
:1005E0008DF8050000208DF8060001208DF8070029
:1005F00069460448FFF79BFF4FF4C0610148FFF7CD
:10060000DEFF1CBD0014024000BFFEE77047000083
:1006100002490143024A1160704700000000FA05D8
:100620000CED00E029B1064A12680243044B1A603F
:1006300004E0034A12688243014B1A6070470000CD
:10064000303802400CB5002001900090344800681A
:1006500040F480303249086000BF3148006800F43F
:10066000003000900198401C0190009818B9019842
:10067000B0F5A04FF1D12A48006800F4003010B165
:100680000120009001E0002000900098012846D150
:1006900023484030006840F08050214940310860D4
:1006A0002048006840F440401E4908601C4808305B
:1006B00000681B49083108600846006840F40040A3
:1006C00008600846006840F4A05008601648091FFA
:1006D0000860081F006840F08070091F086000BFB4
:1006E0000F48006800F000700028F9D040F2057053
:1006F0000E4908600A480830006820F003000849E5
:10070000083108600846006840F00200086000BF39
:1007100003480830006800F00C000828F8D10CBD30
:10072000003802400070004008544007003C02407E
:10073000042808D14FF0E021096941F004014FF08D
:10074000E022116107E04FF0E021096921F0040186
:100750004FF0E0221161704710B500BF502080F3C8
:100760001188BFF34F8FBFF36F8F00BF01F018FCEC
:1007700018B14FF080500449086000BF002080F39A
:10078000118800BF10BD000004ED00E010B5154851
:10079000006840F47000134908601348006840F096
:1007A00001001149086000200F49083108600E4817
:1007B00000680E4908400C4908600D48091D086092
:1007C000081F006820F48020091F086000200649E7
:1007D0000C310860FFF736FF4FF0006001498039A7
:1007E000086010BD88ED00E000380240FFFFF6FE13
:1007F0001030002410B540F225511D4800F03EF89D
:1008000010B31B4800F064F8C4B21A48008800F422
:100810000040C8B91748008800F4804060B10A2C35
:1008200003D000201349088020E01248008840F4DB
:1008300000401049088019E00D2C06D10D480088B1
:1008400040F480400B49088010E00A480088C0F35B
:100850000D0009490C5407480088401C05490880D0
:1008600008460088C72801DD0020088010BD000070
:100870000010014024000020A800002070B50246AE
:10088000002400230025002040F66A16B14200D162
:1008900000BFC1F3421501F01F03012606FA03F35E
:1008A000012D02D19689334006E0022D02D1168A2D
:1008B000334001E0968A33400C12012606FA04F414
:1008C0001688344013B10CB1012000E0002070BD47
:1008D00001468888C0F30800704700BFFEE700BFEC
:1008E0007047000070B504460420FFF721FF0C4854
:1008F000047025464FF47A70454301200949088069
:100900004FF0E020006940F002004FF0E021086164
:1009100008464561006940F00100086170BD0000B3
:100920001C0000201E0000200BE00648006808B9EB
:10093000012000E00020034908604FF4FA7000F045
:10094000F3FEF2E7A48242421CB54FF44070FFF779
:100950005FFEA820FFF7C6FFFFF736FE064801211D
:1009600000238022CDE9001004A1074801F0D2FA4B
:1009700000F0E2FF00BFFEE7000000207374617228
:10098000745F7461736B0000491400082DE9F04135
:1009900005460E462648076826480068001D00F0F8
:1009A00075FD50B92348006890F82C10012088404C
:1009B00021490968814320480160681CD8B9D6B133
:1009C0001E4948681B49096888601A498268096895
:1009D000CA6018490968091D82685160154909688B
:1009E000091D8160154A134909684A611146096861
:1009F000491C11601AE07C190E4800684460BC4232
:100A000007D20C480168091D0D48006800F062FD1E
:100A10000CE008480168091D0A48006800F05AFD0A
:100A200009480068844201D207480460BDE8F081AB
:100A30003C0000202800002040000020640200202C
:100A4000300000202C0000205800002010B5044683
:100A500000F066FD31480068401C304908603048AD
:100A6000006840B92E4804600846006801280DD18E
:100A700000F0C2F90AE02B48006838B9284800683D
:100A8000C06AE16A884201D82548046026480068A7
:100A9000401C2549086008460068206494F82C1022
:100AA0000120884021490968084320490860E16A1B
:100AB00001EB81011E4A02EB81014868A060826857
:100AC000E260211D826851608160E16A01EB810171
:100AD000174A02EB81026261E16A01EB8101144A6B
:100AE00052F82110491CE26A02EB8202104B43F8D3
:100AF000221000F03FFD0B48006868B1084800680C
:100B0000C06AE16A884207D24FF080500949086004
:100B1000BFF34F8FBFF36F8F10BD00003800002070
:100B20002800002044000020540000204000002045
:100B3000B001002004ED00E010B500F0F1FC104819
:100B40000068D0B90F4800F0B5FC0F4800F0B2FCC7
:100B50000C480E4908600C480D49086000220C2121
:100B60000A2001F039F8064908600846006820B1FB
:100B700008A10348006800F081FD00F0FBFC10BDF7
:100B800070000020780200208C0200206800002005
:100B90006C000020546D72510000000010B516E08A
:100BA00000F0BEFC0C48C068C468201D00F06EFC5C
:100BB0000A480068401E0949086009480068401E4C
:100BC0000749086000F0D6FC204600F020F80448F1
:100BD00000680028E4D110BD500200203800002039
:100BE0003400002070B504460D46206C70B1216CB5
:100BF000E0680144E160D4E90210884201D3216831
:100C0000E1602846226CE168FFF78FFB70BD10B5EC
:100C10000446206B00F0CCFC204600F0C9FC10BD5F
:100C20000146084A126812680AB9012200E000224F
:100C30000A600A6822B9034A1268D268106800E0A4
:100C4000002070476800002030B54FF496331748F5
:100C500000F007042CB1C01D20F00700134C041B4A
:100C60001B1B0246124C22600024114D6C60D018F0
:100C7000083820F007000F4C206000240D4D2D682F
:100C80006C600C4D2D682C601146441A4C60094C68
:100C900024680C60084D4C682C60084D4C682C6032
:100CA0004FF00044064D2C6030BD0000A002002033
:100CB0008800002090000020980000209400002070
:100CC000A400002000BFFFF769FF06480068012864
:100CD000F9D94FF0805004490860BFF34F8FBFF33C
:100CE0006F8FF0E7B001002004ED00E02DE9F04146
:100CF00006460D4617469846069C0DB9246000E04E
:100D00002760E66325640121204600F099FF84F8FE
:100D10004C80BDE8F0812DE9F05F82460F46904699
:100D20009B460A9E0C9C4FEA8801A522206BFFF788
:100D300041FBA8F10100216B01EB800929F00709B3
:100D400009F0070008B9012000E0002050B900BFF9
:100D5000502080F31188BFF34F8FBFF36F8F00BF18
:100D600000BFFEE787B1002507E0795D04F134009C
:100D70004155785D00B902E06D1C0A2DF5D300BF26
:100D800000213D20015502E0002084F83400052EAA
:100D900001D2012000E0002050B900BF502080F3B4
:100DA0001188BFF34F8FBFF36F8F00BF00BFFEE707
:100DB000052E00D30426E662A6640020E064201D10
:100DC00000F085FB04F1180000F081FB2461C6F1FE
:100DD0000500A06164620020206584F854005A4632
:100DE0005146484600F01AFB20600B9808B10B985A
:100DF0000460BDE8F09F000010B5002407E004EB9C
:100E000084010F4A02EB810000F054FB641C052CA6
:100E1000F5D30C4800F04EFB0B4800F04BFB0B48A1
:100E200000F048FB0A4800F045FB0A4800F042FB8E
:100E300004480949086004480849086010BD0000DA
:100E4000B001002014020020280200203C020020F3
:100E500050020020640200202C00002030000020FE
:100E600010B50146164800E0006803688B42FBD3CA
:100E70000246436813448B4204D143684C682344C0
:100E8000436001460A464B6813440468A34211D1EB
:100E90000C4C03682468A34208D04B68046864685B
:100EA00023444B6003681B680B6005E0054B1B681F
:100EB0000B6001E003680B60884200D0016010BD48
:100EC00088000020900000202DE9F04104460D46E6
:100ED00016461F464FF0000865602461B5420CD8E5
:100EE000F01BA169884202D34FF0010811E0211DD7
:100EF0000948006800F0EEFA0BE0BE4204D2BD42A1
:100F000002D34FF0010804E0211D0448006800F0FE
:100F1000E1FA4046BDE8F0816C0000206800002046
:100F200070B5054600F0FCFAA86B08B9012400E092
:100F3000002400F01FFB204670BD000070B5054680
:100F40000E460E480068C068C468201D00F09EFA76
:100F500094F8280000F0040028B1324629462046C3
:100F600000F0D6F805E094F8280020F0010084F89D
:100F700028002046216A884770BD000068000020D4
:100F80007FB57FE0019800287CDB039C606908B98D
:100F9000012000E0002010B9201D00F077FA68461B
:100FA00000F0E2F8054601980A2869D2DFE800F06F
:100FB0006805072E365806082F3700BF00BF00BF50
:100FC00094F8280040F0010084F828000298A269F3
:100FD000811803462A462046FFF776FFA8B194F809
:100FE000280000F0040038B10298A26981182A464E
:100FF000204600F08DF805E094F8280020F001006C
:1010000084F828002046216A88473AE000BF94F817
:10101000280020F0010084F8280032E000BF94F896
:10102000280040F0010084F828000298A061A0691F
:1010300008B1012000E0002050B900BF502080F32B
:101040001188BFF34F8FBFF36F8F00BF00BFFEE764
:10105000A06941192B462A462046FFF735FF10E0CC
:1010600094F8280000F0020018B9204600F0A0FA19
:1010700005E094F8280020F0010084F8280000E042
:1010800000BF00BF002201A90348006800F046FE2F
:1010900000287FF477AF7FBD70000020F8B50546CB
:1010A0000C4600F097FC684600F05EF80646009893
:1010B00020BB44B9B54206D801F0E0F831462846D5
:1010C000FFF73CFF1CE03CB10E480068006808B91F
:1010D000012000E000200446A91B22460A480068BF
:1010E00000F0FCFA01F0CAF850B94FF080500749FF
:1010F0000860BFF34F8FBFF36F8F01E001F0BEF8C0
:10110000F8BD00006C0000207000002004ED00E03D
:1011100070B504460D46164604E0A0690544204615
:10112000216A8847A06941192B4632462046FFF7BD
:10113000CBFE0028F1D170BD09480068006808B9ED
:10114000012000E0002020B14FF0FF300549086089
:1011500005E003480068C0680068024908607047FD
:101160002C0000205800002070B5044600F012FF4B
:10117000054607480068854204D200F00BF80120BC
:10118000206001E00020206001480560284670BD15
:101190007800002070B508E00D480068C068046859
:1011A0004FF0FF312046FFF7C9FE0948006800688C
:1011B00008B9012000E000200028EDD004480568AF
:1011C00004480068024908600248056070BD0000DC
:1011D000680000206C0000200E480068401C08B920
:1011E000012000E0002050B900BF502080F311889A
:1011F000BFF34F8FBFF36F8F00BF00BFFEE700BF8D
:10120000502080F31188BFF34F8FBFF36F8F00BF63
:1012100000BFFEE77C00002008B500BF6846FFF76E
:10122000FFFC044620460099FFF738FFFFF7A8FEB1
:10123000F4E770B5044600F073F994F9455010E0F6
:10124000606A08B9012000E0002038B904F12400E8
:1012500000F084FF18B100F01BFB00E003E0681E03
:1012600045B2002DECDC00BFFF2084F8450000F003
:1012700081F900F055F994F9445010E0206908B95B
:10128000012000E0002048B904F1100000F066FFE2
:1012900008B100F0FDFA681E45B200E001E0002D43
:1012A000ECDC00BFFF2084F8440000F063F970BD5F
:1012B0002DE9F04104464FF0000800F08BFB514847
:1012C000006808B9FFF7C0FC4F48006820400028BC
:1012D0007ED13CB304F10800A04223D9083404F0C5
:1012E000070000B304F00700C0F108002044A0424A
:1012F00016D904F00700C0F10800044404F0070008
:1013000008B9012000E0002068B900BF502080F338
:101310001188BFF34F8FBFF36F8F00BF00BFFEE791
:10132000002400E00024002C54D038480068844297
:1013300050D8374E3046056801E02E462D68686863
:10134000A04202D228680028F7D12E4800688542C2
:1013500040D0306800F10808286830606868001BD9
:10136000102819D92F1907F0070008B9012000E04B
:10137000002050B900BF502080F31188BFF34F8F79
:10138000BFF36F8F00BF00BFFEE76868001B786087
:101390006C603846FFF764FD1C4968680968081AE4
:1013A0001A490860084600681A490968884203D249
:1013B00016480068174908601349686809680843B7
:1013C00068600020286014480068401C124900E052
:1013D00000E0086000F052FF08F0070008B90120A3
:1013E00000E0002050B900BF502080F31188BFF307
:1013F0004F8FBFF36F8F00BF00BFFEE74046BDE8D1
:10140000F081000090000020A40000209400002043
:1014100088000020980000209C000020001F4FF052
:1014200080730360001F21F001030360001F054B60
:10143000036014380260001F6FF00203036020385D
:1014400070470000D91100081CB5044600F068F888
:101450000848022100238022CDE9001006A1094896
:1014600000F058FD0848006800F08CF900F082F8A0
:101470001CBD0000040000206C6564315F74617362
:101480006B000000290900080000002001460A69DD
:10149000D1E901309860D1E9010358605068884271
:1014A00001D188685060002008611068401E1060FB
:1014B0001068704700F1080141604FF0FF31816012
:1014C00000F10801C1600161002101607047002145
:1014D0000161704710B502460B685C1C0CB91069BD
:1014E00007E002F1080000E04068446824689C427C
:1014F000FAD944684C604C68A160886041600A6118
:101500001468641C146010BD42684A6093688B6064
:10151000936859609160086103685B1C03607047C1
:1015200000BF502080F31188BFF34F8FBFF36F8F40
:1015300000BF0E480068401C0C490860084600685F
:10154000012812D10A480068C0B208B9012000E0A1
:10155000002050B900BF502080F31188BFF34F8F97
:10156000BFF36F8F00BF00BFFEE770477C00002015
:1015700004ED00E00D48006850B900BF502080F332
:101580001188BFF34F8FBFF36F8F00BF00BFFEE71F
:1015900006480068401E054908600846006820B9F2
:1015A000002080F3118800BF00BF70477C0000203E
:1015B00070B506463546002E44D0083D2C462249DB
:1015C00060680968084008B1012000E0002050B9B7
:1015D00000BF502080F31188BFF34F8FBFF36F8F90
:1015E00000BF00BFFEE7206808B9012000E000202E
:1015F00050B900BF502080F31188BFF34F8FBFF365
:101600006F8F00BF00BFFEE70F49606809680840A0
:10161000C0B12068B0B90C4960680968884360604F
:1016200000F0D8F90949606809680844074908606A
:101630002046FFF715FC06480068401C0449086076
:1016400000F01CFE70BD0000A400002094000020EB
:10165000A000002000204FF0E021086188610648CA
:1016600000684FF47A71B0FBF1F0401E4FF0E021BA
:1016700048610720086170470800002030B5024625
:101680000B46002152B900BF502484F31188BFF3E8
:101690004F8FBFF36F8F00BF00BFFEE7BBB10020CD
:1016A00012E00D4C04EBC0046468944203D10A4C70
:1016B00004EBC0010AE031B9074C54F8304014B9CA
:1016C000054C04EBC001401C0828EAD300BF09B157
:1016D0000B604A6030BD0000700100202DE9F04130
:1016E00005460E4617462C46FFF71AFF94F94400AC
:1016F000401C10B9002084F8440094F94500401CB7
:1017000010B9002084F84500FFF734FFA06B28B91A
:101710003A46314604F1240000F0DCF82046FFF799
:1017200088FDBDE8F081000070B504460025D4B105
:101730001248006808B9012000E0002050B900BF3D
:10174000502080F31188BFF34F8FBFF36F8F00BF1E
:1017500000BFFEE700F03EF900212046FFF716F932
:1017600000F08CFD05463DB94FF0805004490860FB
:10177000BFF34F8FBFF36F8F70BD00006400002078
:1017800004ED00E070B50546FFF7CAFE15B9304814
:10179000006800E028460446201DFFF777FE78B970
:1017A000E06A00EB80002B4951F8200040B994F822
:1017B0002C1001208840284909688143264801608F
:1017C000A06A18B104F11800FFF760FE2348006812
:1017D000401C224908601E480068844209D1211D2E
:1017E0001F48FFF791FE1F480068401C1D49086014
:1017F00009E01D480068401E1B4908602046FFF7AD
:1018000006FAFFF799FCFFF7B5FE18480068E8B143
:101810000F480068844219D11548006808B90120B2
:1018200000E0002050B900BF502080F31188BFF3C2
:101830004F8FBFF36F8F00BF00BFFEE74FF08050A8
:101840000C490860BFF34F8FBFF36F8F70BD00006E
:1018500028000020B001002040000020540000209B
:1018600050020020340000203800002044000020F6
:101870006400002004ED00E00349096801600349A9
:101880000968416070470000500000203C000020C3
:1018900001200149086070474C00002070B50446E3
:1018A0000D4654B900BF502080F31188BFF34F8F0D
:1018B000BFF36F8F00BF00BFFEE705480168183116
:1018C0002046FFF707FE01212846FFF75FF870BDAD
:1018D0002800002070B504460E46154654B900BFD6
:1018E000502080F31188BFF34F8FBFF36F8F00BF7D
:1018F00000BFFEE760680F490968C8610D4982684A
:1019000009680A620B4909681831826851600949FF
:10191000096818318160074909688C622168491C8F
:1019200021600DB14FF0FF3629463046FFF72EF803
:1019300070BD0000280000201CB51E4800210B4689
:101940008222CDE900101CA11D4800F0E3FA0446F4
:10195000012C02D100F04EFD0446012C15D100BF30
:10196000502080F31188BFF34F8FBFF36F8F00BFFC
:101970004FF0FF3013490860012013490860002030
:101980001249086000F074F810E0601C08B10120F2
:1019900000E0002050B900BF502080F31188BFF351
:1019A0004F8FBFF36F8F00BF00BFFEE7084800688E
:1019B0001CBD00005C00002049444C4500000000B4
:1019C000C50C000858000020440000203C00002006
:1019D0006000002002480068401C01490860704710
:1019E000640000201D48006818B101201C490860EF
:1019F00032E000201A4908601A480068B0FA80F006
:101A0000C0F11F0101EB8100174A52F8200008B114
:101A1000012000E0002050B900BF502080F3118861
:101A2000BFF34F8FBFF36F8F00BF00BFFEE701EB27
:101A300081020D4B03EB820042685268426000F164
:101A400008024368934202D1426852684260426889
:101A5000D268064B1A6000BF704700006400002087
:101A60004C00002040000020B00100202800002091
:101A70001CB5524800685249884201D0012000E05C
:101A8000002050B900BF502080F31188BFF34F8F62
:101A9000BFF36F8F00BF00BFFEE7484800684849AA
:101AA000491E884201D0012000E0002050B900BF4B
:101AB000502080F31188BFF34F8FBFF36F8F00BFAB
:101AC00000BFFEE73F49084600780190FF200A4624
:101AD00010700846007800909DF8000000F0F000BB
:101AE0009DF80020904201D1012000E0002050B973
:101AF00000BF502080F31188BFF34F8FBFF36F8F6B
:101B000000BF00BFFEE79DF8000000F050002E4A25
:101B1000107007202D4A106009E02C480068401E14
:101B20002A4A10609DF800004006000E00909DF8C3
:101B3000000000F080008028EFD024480068C0F149
:101B40000700042801D1012000E0002050B900BFA7
:101B5000502080F31188BFF34F8FBFF36F8F00BF0A
:101B600000BFFEE7194800680002184A10601046DE
:101B7000008800F4E0601060124A019810700F486D
:101B80002030006840F470000C492031086008469D
:101B9000006840F070400860FFF75CFD00200C49D1
:101BA0000860FEF765FB0B48006840F040400949BB
:101BB0000860FEF749FB00201CBD000000ED00E0BE
:101BC00071C20F4100E400E080000020840000208A
:101BD0007C00002034EF00E02DE9F84305460E4676
:101BE00017460024E5B1601EB0FBF5F0B04217D3F4
:101BF00005FB06F010F1510F12D805FB06F808F1AD
:101C00005000FFF755FB0446B4B1A14609F1500955
:101C10003B464A46314628460094FFF767F80BE0FA
:101C200054B900BF502080F31188BFF34F8FBFF32A
:101C30006F8F00BF00BFFEE72046BDE8F8830000BD
:101C40002DE9F04105460E4601272C4654B900BF48
:101C5000502080F31188BFF34F8FBFF36F8F00BF09
:101C600000BFFEE7002C42D0E06B00283FD04FF0D1
:101C7000FF31E06BB1FBF0F0216C884237D3FFF706
:101C80004FFCD4E90F12206801FB0200A060002085
:101C9000A06320686060E06B401E226C216800FB3E
:101CA0000211E160FF2084F8440084F845009EB9E9
:101CB000206908B9012000E00020A8B904F1100053
:101CC00000F04CFA80B14FF0805013490860BFF328
:101CD0004F8FBFF36F8F07E004F11000FFF7EAFBAF
:101CE00004F12400FFF7E6FBFFF744FC00E00027C7
:101CF0000FB1012000E0002050B900BF502080F358
:101D00001188BFF34F8FBFF36F8F00BF00BFFEE797
:101D10003846BDE8F081000004ED00E02DE9F74110
:101D200083B005460E464FF000082C4654B900BF5C
:101D3000502080F31188BFF34F8FBFF36F8F00BF28
:101D400000BFFEE70EB9206C08B9012000E00020BA
:101D500050B900BF502080F31188BFF34F8FBFF3FD
:101D60006F8F00BF00BFFEE700F004F908B90598C7
:101D700008B9012000E0002050B900BF502080F3D6
:101D80001188BFF34F8FBFF36F8F00BF00BFFEE717
:101D900000BFFFF7C5FBA76BF7B131462046FEF742
:101DA00021FF781EA063206908B9012000E000200F
:101DB00060B904F1100000F0D1F938B14FF0805053
:101DC0002F490860BFF34F8FBFF36F8FFFF7D2FB30
:101DD000012006B0BDE8F081059818B9FFF7CAFBED
:101DE0000020F6E7B8F1000F04D101A8FFF744FD89
:101DF0004FF00108FFF7BEFBFFF7ECFDFFF790FB8C
:101E000094F94400401C10B9002084F8440094F96F
:101E10004500401C10B9002084F84500FFF7AAFBDC
:101E200005A901A800F02EF8F0B92046FFF778F8D0
:101E3000A0B104F124000599FFF730FD2046FFF71B
:101E4000F8F900F01BFA0028A3D14FF080500C499C
:101E50000860BFF34F8FBFF36F8F9AE72046FFF7FD
:101E6000E8F900F00BFA94E72046FFF7E2F900F0FA
:101E700005FA2046FFF754F800288AD00020A8E78A
:101E800004ED00E070B505460C4655B900BF502082
:101E900080F31188BFF34F8FBFF36F8F00BF00BF78
:101EA000FEE754B900BF502080F31188BFF34F8F75
:101EB000BFF36F8F00BF00BFFEE7FFF731FB134892
:101EC00002686868131A2068401C08B9002619E0E7
:101ED0000F4928680968884206D06868904203D88C
:101EE0000126002020600DE02068984207D9206874
:101EF000C01A20602846FFF7BFFC002602E0002041
:101F000020600126FFF736FB304670BD3C00002004
:101F1000500000202DE9FF4F85B0804689461746C6
:101F2000DDE912ABB800FFF7C3F9064656B15820F9
:101F3000FFF7BEF904460CB1266304E03046FFF714
:101F400037FB00E000247CB10020CDE900ABCDE9F7
:101F500002403A4649464046089BFEF7DCFE2046D2
:101F6000FEF774FD012501E04FF0FF35284609B06A
:101F7000BDE8F08F0549096809B9012005E0044969
:101F8000096809B9022000E00020704744000020E1
:101F90006400002001490868704700003C000020F0
:101FA0002DE9F0414FF000086148006800287DD11C
:101FB00060480068451C5F48056015BB5E480068C6
:101FC000006808B9012000E0002050B900BF50208F
:101FD00080F31188BFF34F8FBFF36F8F00BF00BF37
:101FE000FEE755480768554800685349086053485C
:101FF000076053480068401C51490860FFF79CF88F
:1020000000BF50480068854277D300BF4A48006847
:10201000006808B9012000E0002020B14FF0FF3037
:102020004849086068E044480068C068C468666859
:10203000B54202D2434806605EE06069D4E902120C
:102040008A60D4E902214A60211D42688A4201D196
:10205000E1684160002262610168491E0160A06A76
:1020600098B1A06AD4E907128A60D4E907214A60CE
:1020700004F1180142688A4201D1216A41600022BC
:10208000A2620168491E016000BF94F82C10012073
:1020900088402D49096808432B490860E16A01EB33
:1020A00081012A4A02EB8101486800E037E0A06024
:1020B0008268E260211D826851608160E16A01EB03
:1020C0008101224A02EB81026261E16A01EB810136
:1020D0001E4A52F82110491CE26A02EB82021B4B95
:1020E00043F822101A49E06A0968C96A88428DD308
:1020F0004FF001088AE700E000BF15480068C06A99
:1021000000EB8000114951F82000012801D94FF05F
:1021100001081048006808B14FF0010804E00E48BB
:102120000068401C0C4908604046BDE8F081000092
:10213000640000203C0000202C0000203000002023
:10214000500000205800002040000020B001002076
:10215000280000204C0000204800002070B50346F5
:10216000D868C16851B900BF502080F31188BFF30F
:102170004F8FBFF36F8F00BF00BFFEE7886AD1E9C2
:102180000745A560D1E90754656001F11804456869
:10219000A54201D10C6A446000258D620468641E6A
:1021A00004603048006800283DD14869D1E9024503
:1021B000A560D1E9025465600C1D4568A54201D1B6
:1021C000CC68446000254D610468641E046091F889
:1021D0002C400120A040244C24682043224C206045
:1021E000CC6A04EB8404214D05EB840460688860AC
:1021F0008568CD600C1D85686C608460CC6A04EBDA
:1022000084041A4D05EB84054D61CC6A04EB84040B
:10221000164D55F82440641CCD6A05EB8505134E18
:1022200046F8254010E0124C6068C86185680D6270
:1022300001F1180485686C6084600D4D8D622C4638
:102240002468641C2C6000BF0A4CC86A2468E46AD5
:10225000A04204D901220120074C206000E00022A6
:10226000104670BD6400002040000020B001002036
:102270003C020020280000204C00002070B5002403
:1022800000265348006850B900BF502080F31188E1
:10229000BFF34F8FBFF36F8F00BF00BFFEE7FFF7A5
:1022A0003FF94B480068401E4949086008460068ED
:1022B00000287DD147480068002879D05BE0464877
:1022C000C068C468A06AD4E907128A60D4E907210B
:1022D0004A6004F1180142688A4201D1216A4160D2
:1022E0000022A2620168491E01606069D4E90212FD
:1022F0008A60D4E902214A60211D42688A4201D1E4
:10230000E1684160002262610168491E016094F841
:102310002C10012088403149096808432F49086082
:10232000E16A01EB81012E4A02EB81014868A0605D
:102330008268E260211D826851608160E16A01EB80
:102340008101274A02EB81026261E16A01EB8101AE
:10235000234A52F82110491CE26A02EB8202204B08
:1023600043F822101F49E06A0968C96A884202D30B
:1023700001201D4908601848006808B9012000E0E4
:10238000002000289BD00CB1FEF7D6FE1748056848
:1023900065B100BFFFF704FE10B1012012490860CB
:1023A0006D1E002DF6D10020104908600E4800E097
:1023B00009E0006838B1012630070D490860BFF315
:1023C0004F8FBFF36F8FFFF7D5F8304670BD000019
:1023D00064000020380000203C0200204000002063
:1023E000B0010020280000204C0000204800002000
:1023F00004ED00E01CB50024FEF79EFB0E480068CB
:1024000058B10E48022100234FF48272CDE900102A
:102410000BA10D48FFF77EFD044654B900BF5020C4
:1024200080F31188BFF34F8FBFF36F8F00BF00BFE2
:10243000FEE720461CBD0000700000207400002054
:10244000546D722053766300191200084FF04070EB
:10245000E1EE100A70470000782400080000002018
:10246000A8000000C401000820250008A8000020E2
:1024700058340100E00100080000000000000000E6
:10248000007A030A000000000000000001020304BB
:10249000060708090000000000000000000000001E
:1024A000000000000000000000000000000000002C
:1024B000000000000000000000000000000000001C
:1024C000000000000000000000000000000000000C
:1024D00000000000000000000400000000000000F8
:1024E00000000000000000000000000000000000EC
:1024F00000000000AAAAAAAA000000000000000034
:1025000000000000000000000000000000000000CB
:1025100000000000000000000000000000000000BB
:040000050800018965
:00000001FF
